{
  "contractName": "CredentialRegistry",
  "abi": [
    {
      "inputs": [],
      "stateMutability": "nonpayable",
      "type": "constructor"
    },
    {
      "anonymous": false,
      "inputs": [
        {
          "indexed": true,
          "internalType": "bytes32",
          "name": "didHash",
          "type": "bytes32"
        },
        {
          "indexed": true,
          "internalType": "address",
          "name": "issuer",
          "type": "address"
        },
        {
          "indexed": false,
          "internalType": "string",
          "name": "cid",
          "type": "string"
        }
      ],
      "name": "CredentialIssued",
      "type": "event"
    },
    {
      "anonymous": false,
      "inputs": [
        {
          "indexed": true,
          "internalType": "bytes32",
          "name": "didHash",
          "type": "bytes32"
        },
        {
          "indexed": true,
          "internalType": "address",
          "name": "revokedBy",
          "type": "address"
        }
      ],
      "name": "CredentialRevoked",
      "type": "event"
    },
    {
      "anonymous": false,
      "inputs": [
        {
          "indexed": true,
          "internalType": "address",
          "name": "issuer",
          "type": "address"
        },
        {
          "indexed": false,
          "internalType": "bool",
          "name": "authorized",
          "type": "bool"
        }
      ],
      "name": "IssuerAuthorized",
      "type": "event"
    },
    {
      "anonymous": false,
      "inputs": [
        {
          "indexed": true,
          "internalType": "address",
          "name": "previousOwner",
          "type": "address"
        },
        {
          "indexed": true,
          "internalType": "address",
          "name": "newOwner",
          "type": "address"
        }
      ],
      "name": "OwnershipTransferred",
      "type": "event"
    },
    {
      "inputs": [
        {
          "internalType": "address",
          "name": "",
          "type": "address"
        }
      ],
      "name": "authorizedIssuers",
      "outputs": [
        {
          "internalType": "bool",
          "name": "",
          "type": "bool"
        }
      ],
      "stateMutability": "view",
      "type": "function",
      "constant": true
    },
    {
      "inputs": [
        {
          "internalType": "bytes32",
          "name": "",
          "type": "bytes32"
        }
      ],
      "name": "credentials",
      "outputs": [
        {
          "internalType": "address",
          "name": "issuer",
          "type": "address"
        },
        {
          "internalType": "string",
          "name": "cid",
          "type": "string"
        },
        {
          "internalType": "bool",
          "name": "revoked",
          "type": "bool"
        },
        {
          "internalType": "uint256",
          "name": "issuedAt",
          "type": "uint256"
        }
      ],
      "stateMutability": "view",
      "type": "function",
      "constant": true
    },
    {
      "inputs": [],
      "name": "owner",
      "outputs": [
        {
          "internalType": "address",
          "name": "",
          "type": "address"
        }
      ],
      "stateMutability": "view",
      "type": "function",
      "constant": true
    },
    {
      "inputs": [],
      "name": "renounceOwnership",
      "outputs": [],
      "stateMutability": "nonpayable",
      "type": "function"
    },
    {
      "inputs": [
        {
          "internalType": "address",
          "name": "newOwner",
          "type": "address"
        }
      ],
      "name": "transferOwnership",
      "outputs": [],
      "stateMutability": "nonpayable",
      "type": "function"
    },
    {
      "inputs": [
        {
          "internalType": "address",
          "name": "issuer",
          "type": "address"
        },
        {
          "internalType": "bool",
          "name": "allowed",
          "type": "bool"
        }
      ],
      "name": "setAuthorizedIssuer",
      "outputs": [],
      "stateMutability": "nonpayable",
      "type": "function"
    },
    {
      "inputs": [
        {
          "internalType": "bytes32",
          "name": "didHash",
          "type": "bytes32"
        },
        {
          "internalType": "string",
          "name": "cid",
          "type": "string"
        }
      ],
      "name": "issueCredential",
      "outputs": [],
      "stateMutability": "nonpayable",
      "type": "function"
    },
    {
      "inputs": [
        {
          "internalType": "bytes32",
          "name": "didHash",
          "type": "bytes32"
        }
      ],
      "name": "getCredential",
      "outputs": [
        {
          "internalType": "bool",
          "name": "exists",
          "type": "bool"
        },
        {
          "internalType": "address",
          "name": "issuer",
          "type": "address"
        },
        {
          "internalType": "string",
          "name": "cid",
          "type": "string"
        },
        {
          "internalType": "bool",
          "name": "revoked",
          "type": "bool"
        },
        {
          "internalType": "uint256",
          "name": "issuedAt",
          "type": "uint256"
        }
      ],
      "stateMutability": "view",
      "type": "function",
      "constant": true
    },
    {
      "inputs": [
        {
          "internalType": "bytes32",
          "name": "didHash",
          "type": "bytes32"
        }
      ],
      "name": "revokeCredential",
      "outputs": [],
      "stateMutability": "nonpayable",
      "type": "function"
    }
  ],
  "bytecode": "0x60806040523480156200001157600080fd5b506200003262000026620000e160201b60201c565b620000e960201b60201c565b6001600260003373ffffffffffffffffffffffffffffffffffffffff1673ffffffffffffffffffffffffffffffffffffffff16815260200190815260200160002060006101000a81548160ff0219169083151502179055503373ffffffffffffffffffffffffffffffffffffffff167f323f1985f95ab4281ac5356feae087f07598411565971dd57673e77bf9aecea86001604051620000d39190620001ca565b60405180910390a2620001e7565b600033905090565b60008060009054906101000a900473ffffffffffffffffffffffffffffffffffffffff169050816000806101000a81548173ffffffffffffffffffffffffffffffffffffffff021916908373ffffffffffffffffffffffffffffffffffffffff1602179055508173ffffffffffffffffffffffffffffffffffffffff168173ffffffffffffffffffffffffffffffffffffffff167f8be0079c531659141344cd1fd0a4f28419497f9722a3daafe3b4186f6b6457e060405160405180910390a35050565b60008115159050919050565b620001c481620001ad565b82525050565b6000602082019050620001e16000830184620001b9565b92915050565b6115ec80620001f76000396000f3fe608060405234801561001057600080fd5b50600436106100935760003560e01c8063ca6eec7811610066578063ca6eec781461010f578063d1be48831461012b578063f1d076011461015f578063f2fde38b1461017b578063f731fa0f1461019757610093565b8063299d034814610098578063357061e1146100cb578063715018a6146100e75780638da5cb5b146100f1575b600080fd5b6100b260048036038101906100ad9190610b97565b6101c7565b6040516100c29493929190610cc9565b60405180910390f35b6100e560048036038101906100e09190610d6d565b6102ac565b005b6100ef61035d565b005b6100f9610371565b6040516101069190610dad565b60405180910390f35b61012960048036038101906101249190610b97565b61039a565b005b61014560048036038101906101409190610b97565b61057e565b604051610156959493929190610dc8565b60405180910390f35b61017960048036038101906101749190610e87565b610714565b005b61019560048036038101906101909190610ee7565b61096a565b005b6101b160048036038101906101ac9190610ee7565b6109ed565b6040516101be9190610f14565b60405180910390f35b60016020528060005260406000206000915090508060000160009054906101000a900473ffffffffffffffffffffffffffffffffffffffff169080600101805461021090610f5e565b80601f016020809104026020016040519081016040528092919081815260200182805461023c90610f5e565b80156102895780601f1061025e57610100808354040283529160200191610289565b820191906000526020600020905b81548152906001019060200180831161026c57829003601f168201915b5050505050908060020160009054906101000a900460ff16908060030154905084565b6102b4610a0d565b80600260008473ffffffffffffffffffffffffffffffffffffffff1673ffffffffffffffffffffffffffffffffffffffff16815260200190815260200160002060006101000a81548160ff0219169083151502179055508173ffffffffffffffffffffffffffffffffffffffff167f323f1985f95ab4281ac5356feae087f07598411565971dd57673e77bf9aecea8826040516103519190610f14565b60405180910390a25050565b610365610a0d565b61036f6000610a8b565b565b60008060009054906101000a900473ffffffffffffffffffffffffffffffffffffffff16905090565b600060016000838152602001908152602001600020905060008160030154036103f8576040517f08c379a00000000000000000000000000000000000000000000000000000000081526004016103ef90610fdb565b60405180910390fd5b8060000160009054906101000a900473ffffffffffffffffffffffffffffffffffffffff1673ffffffffffffffffffffffffffffffffffffffff163373ffffffffffffffffffffffffffffffffffffffff1614806104885750610459610371565b73ffffffffffffffffffffffffffffffffffffffff163373ffffffffffffffffffffffffffffffffffffffff16145b6104c7576040517f08c379a00000000000000000000000000000000000000000000000000000000081526004016104be90611047565b60405180910390fd5b8060020160009054906101000a900460ff1615610519576040517f08c379a0000000000000000000000000000000000000000000000000000000008152600401610510906110b3565b60405180910390fd5b60018160020160006101000a81548160ff0219169083151502179055503373ffffffffffffffffffffffffffffffffffffffff16827fd3196f598a360c115a1de20d5a58021203793f1bf1a08efe55ee14545779606d60405160405180910390a35050565b60008060606000806000600160008881526020019081526020016000206040518060800160405290816000820160009054906101000a900473ffffffffffffffffffffffffffffffffffffffff1673ffffffffffffffffffffffffffffffffffffffff1673ffffffffffffffffffffffffffffffffffffffff16815260200160018201805461060c90610f5e565b80601f016020809104026020016040519081016040528092919081815260200182805461063890610f5e565b80156106855780601f1061065a57610100808354040283529160200191610685565b820191906000526020600020905b81548152906001019060200180831161066857829003601f168201915b505050505081526020016002820160009054906101000a900460ff16151515158152602001600382015481525050905060008160600151036106e957600080600080604051806020016040528060008152509190955095509550955095505061070b565b6001816000015182602001518360400151846060015195509550955095509550505b91939590929450565b600260003373ffffffffffffffffffffffffffffffffffffffff1673ffffffffffffffffffffffffffffffffffffffff16815260200190815260200160002060009054906101000a900460ff166107a0576040517f08c379a00000000000000000000000000000000000000000000000000000000081526004016107979061111f565b60405180910390fd5b60006001600085815260200190815260200160002060030154146107f9576040517f08c379a00000000000000000000000000000000000000000000000000000000081526004016107f09061118b565b60405180910390fd5b60405180608001604052803373ffffffffffffffffffffffffffffffffffffffff16815260200183838080601f016020809104026020016040519081016040528093929190818152602001838380828437600081840152601f19601f820116905080830192505050505050508152602001600015158152602001428152506001600085815260200190815260200160002060008201518160000160006101000a81548173ffffffffffffffffffffffffffffffffffffffff021916908373ffffffffffffffffffffffffffffffffffffffff16021790555060208201518160010190816108e69190611386565b5060408201518160020160006101000a81548160ff021916908315150217905550606082015181600301559050503373ffffffffffffffffffffffffffffffffffffffff16837fa6ffd16850fcbd5096e91ab4c80888a24a546d4f75ff4081d11beaa783ad9aef848460405161095d929190611494565b60405180910390a3505050565b610972610a0d565b600073ffffffffffffffffffffffffffffffffffffffff168173ffffffffffffffffffffffffffffffffffffffff16036109e1576040517f08c379a00000000000000000000000000000000000000000000000000000000081526004016109d89061152a565b60405180910390fd5b6109ea81610a8b565b50565b60026020528060005260406000206000915054906101000a900460ff1681565b610a15610b4f565b73ffffffffffffffffffffffffffffffffffffffff16610a33610371565b73ffffffffffffffffffffffffffffffffffffffff1614610a89576040517f08c379a0000000000000000000000000000000000000000000000000000000008152600401610a8090611596565b60405180910390fd5b565b60008060009054906101000a900473ffffffffffffffffffffffffffffffffffffffff169050816000806101000a81548173ffffffffffffffffffffffffffffffffffffffff021916908373ffffffffffffffffffffffffffffffffffffffff1602179055508173ffffffffffffffffffffffffffffffffffffffff168173ffffffffffffffffffffffffffffffffffffffff167f8be0079c531659141344cd1fd0a4f28419497f9722a3daafe3b4186f6b6457e060405160405180910390a35050565b600033905090565b600080fd5b600080fd5b6000819050919050565b610b7481610b61565b8114610b7f57600080fd5b50565b600081359050610b9181610b6b565b92915050565b600060208284031215610bad57610bac610b57565b5b6000610bbb84828501610b82565b91505092915050565b600073ffffffffffffffffffffffffffffffffffffffff82169050919050565b6000610bef82610bc4565b9050919050565b610bff81610be4565b82525050565b600081519050919050565b600082825260208201905092915050565b60005b83811015610c3f578082015181840152602081019050610c24565b60008484015250505050565b6000601f19601f8301169050919050565b6000610c6782610c05565b610c718185610c10565b9350610c81818560208601610c21565b610c8a81610c4b565b840191505092915050565b60008115159050919050565b610caa81610c95565b82525050565b6000819050919050565b610cc381610cb0565b82525050565b6000608082019050610cde6000830187610bf6565b8181036020830152610cf08186610c5c565b9050610cff6040830185610ca1565b610d0c6060830184610cba565b95945050505050565b610d1e81610be4565b8114610d2957600080fd5b50565b600081359050610d3b81610d15565b92915050565b610d4a81610c95565b8114610d5557600080fd5b50565b600081359050610d6781610d41565b92915050565b60008060408385031215610d8457610d83610b57565b5b6000610d9285828601610d2c565b9250506020610da385828601610d58565b9150509250929050565b6000602082019050610dc26000830184610bf6565b92915050565b600060a082019050610ddd6000830188610ca1565b610dea6020830187610bf6565b8181036040830152610dfc8186610c5c565b9050610e0b6060830185610ca1565b610e186080830184610cba565b9695505050505050565b600080fd5b600080fd5b600080fd5b60008083601f840112610e4757610e46610e22565b5b8235905067ffffffffffffffff811115610e6457610e63610e27565b5b602083019150836001820283011115610e8057610e7f610e2c565b5b9250929050565b600080600060408486031215610ea057610e9f610b57565b5b6000610eae86828701610b82565b935050602084013567ffffffffffffffff811115610ecf57610ece610b5c565b5b610edb86828701610e31565b92509250509250925092565b600060208284031215610efd57610efc610b57565b5b6000610f0b84828501610d2c565b91505092915050565b6000602082019050610f296000830184610ca1565b92915050565b7f4e487b7100000000000000000000000000000000000000000000000000000000600052602260045260246000fd5b60006002820490506001821680610f7657607f821691505b602082108103610f8957610f88610f2f565b5b50919050565b7f4e6f7420666f756e640000000000000000000000000000000000000000000000600082015250565b6000610fc5600983610c10565b9150610fd082610f8f565b602082019050919050565b60006020820190508181036000830152610ff481610fb8565b9050919050565b7f4e6f7420617574686f72697a6564000000000000000000000000000000000000600082015250565b6000611031600e83610c10565b915061103c82610ffb565b602082019050919050565b6000602082019050818103600083015261106081611024565b9050919050565b7f416c7265616479207265766f6b65640000000000000000000000000000000000600082015250565b600061109d600f83610c10565b91506110a882611067565b602082019050919050565b600060208201905081810360008301526110cc81611090565b9050919050565b7f4e6f7420616e20617574686f72697a6564206973737565720000000000000000600082015250565b6000611109601883610c10565b9150611114826110d3565b602082019050919050565b60006020820190508181036000830152611138816110fc565b9050919050565b7f43726564656e7469616c20657869737473000000000000000000000000000000600082015250565b6000611175601183610c10565b91506111808261113f565b602082019050919050565b600060208201905081810360008301526111a481611168565b9050919050565b7f4e487b7100000000000000000000000000000000000000000000000000000000600052604160045260246000fd5b60008190508160005260206000209050919050565b60006020601f8301049050919050565b600082821b905092915050565b60006008830261123c7fffffffffffffffffffffffffffffffffffffffffffffffffffffffffffffffff826111ff565b61124686836111ff565b95508019841693508086168417925050509392505050565b6000819050919050565b600061128361127e61127984610cb0565b61125e565b610cb0565b9050919050565b6000819050919050565b61129d83611268565b6112b16112a98261128a565b84845461120c565b825550505050565b600090565b6112c66112b9565b6112d1818484611294565b505050565b5b818110156112f5576112ea6000826112be565b6001810190506112d7565b5050565b601f82111561133a5761130b816111da565b611314846111ef565b81016020851015611323578190505b61133761132f856111ef565b8301826112d6565b50505b505050565b600082821c905092915050565b600061135d6000198460080261133f565b1980831691505092915050565b6000611376838361134c565b9150826002028217905092915050565b61138f82610c05565b67ffffffffffffffff8111156113a8576113a76111ab565b5b6113b28254610f5e565b6113bd8282856112f9565b600060209050601f8311600181146113f057600084156113de578287015190505b6113e8858261136a565b865550611450565b601f1984166113fe866111da565b60005b8281101561142657848901518255600182019150602085019450602081019050611401565b86831015611443578489015161143f601f89168261134c565b8355505b6001600288020188555050505b505050505050565b82818337600083830152505050565b60006114738385610c10565b9350611480838584611458565b61148983610c4b565b840190509392505050565b600060208201905081810360008301526114af818486611467565b90509392505050565b7f4f776e61626c653a206e6577206f776e657220697320746865207a65726f206160008201527f6464726573730000000000000000000000000000000000000000000000000000602082015250565b6000611514602683610c10565b915061151f826114b8565b604082019050919050565b6000602082019050818103600083015261154381611507565b9050919050565b7f4f776e61626c653a2063616c6c6572206973206e6f7420746865206f776e6572600082015250565b6000611580602083610c10565b915061158b8261154a565b602082019050919050565b600060208201905081810360008301526115af81611573565b905091905056fea2646970667358221220a92a7b9112bba8535b88543eb9ff96ea519cab5653fd79443e1d910e1a83f20f64736f6c63430008110033",
  "immutableReferences": {},
  "source": "// SPDX-License-Identifier: MIT\r\npragma solidity ^0.8.17;\r\n\r\nimport \"@openzeppelin/contracts/access/Ownable.sol\";\r\n\r\ncontract CredentialRegistry is Ownable {\r\n\r\n\r\n\r\n    struct Credential {\r\n        address issuer;\r\n        string cid;\r\n        bool revoked;\r\n        uint256 issuedAt;\r\n    }\r\n\r\n    mapping(bytes32 => Credential) public credentials;\r\n    mapping(address => bool) public authorizedIssuers;\r\n\r\n    event IssuerAuthorized(address indexed issuer, bool authorized);\r\n    event CredentialIssued(bytes32 indexed didHash, address indexed issuer, string cid);\r\n    event CredentialRevoked(bytes32 indexed didHash, address indexed revokedBy);\r\n\r\n    constructor() {\r\n        authorizedIssuers[msg.sender] = true;  \r\n        emit IssuerAuthorized(msg.sender, true);\r\n    }\r\n\r\n    modifier onlyIssuer() {\r\n        require(authorizedIssuers[msg.sender], \"Not an authorized issuer\");\r\n        _;\r\n    }\r\n\r\n    function setAuthorizedIssuer(address issuer, bool allowed) external onlyOwner {\r\n        authorizedIssuers[issuer] = allowed;\r\n        emit IssuerAuthorized(issuer, allowed);\r\n    }\r\n\r\n    function issueCredential(bytes32 didHash, string calldata cid) external onlyIssuer {\r\n        require(credentials[didHash].issuedAt == 0, \"Credential exists\");\r\n        \r\n        credentials[didHash] = Credential({\r\n            issuer: msg.sender,\r\n            cid: cid,\r\n            revoked: false,\r\n            issuedAt: block.timestamp\r\n        });\r\n\r\n        emit CredentialIssued(didHash, msg.sender, cid);\r\n    }\r\n\r\n    function getCredential(bytes32 didHash)\r\n        external\r\n        view\r\n        returns (\r\n            bool exists,\r\n            address issuer,\r\n            string memory cid,\r\n            bool revoked,\r\n            uint256 issuedAt\r\n        )\r\n    {\r\n        Credential memory c = credentials[didHash];\r\n        if (c.issuedAt == 0) return (false, address(0), \"\", false, 0);\r\n        return (true, c.issuer, c.cid, c.revoked, c.issuedAt);\r\n    }\r\n\r\n    function revokeCredential(bytes32 didHash) external {\r\n        Credential storage c = credentials[didHash];\r\n        require(c.issuedAt != 0, \"Not found\");\r\n        require(msg.sender == c.issuer || msg.sender == owner(), \"Not authorized\");\r\n        require(!c.revoked, \"Already revoked\");\r\n        \r\n        c.revoked = true;\r\n\r\n        emit CredentialRevoked(didHash, msg.sender);\r\n    }\r\n}\r\n",
  "sourcePath": "E:\\college\\Project\\prototype2\\contracts\\CredentialRegistry.sol",
  "compiler": {
    "name": "solc",
    "version": "0.8.17+commit.8df45f5f.Emscripten.clang"
  },
  "schemaVersion": "3.4.16",
  "updatedAt": "2025-11-17T09:34:33.905Z",
  "networkType": "ethereum",
  "devdoc": {
    "kind": "dev",
    "methods": {
      "owner()": {
        "details": "Returns the address of the current owner."
      },
      "renounceOwnership()": {
        "details": "Leaves the contract without owner. It will not be possible to call `onlyOwner` functions. Can only be called by the current owner. NOTE: Renouncing ownership will leave the contract without an owner, thereby disabling any functionality that is only available to the owner."
      },
      "transferOwnership(address)": {
        "details": "Transfers ownership of the contract to a new account (`newOwner`). Can only be called by the current owner."
      }
    },
    "version": 1
  },
  "userdoc": {
    "kind": "user",
    "methods": {},
    "version": 1
  }
}